{
  "contractName": "Donate",
  "abi": [
    {
      "inputs": [
        {
          "internalType": "address",
          "name": "",
          "type": "address"
        }
      ],
      "name": "donations",
      "outputs": [
        {
          "internalType": "uint256",
          "name": "",
          "type": "uint256"
        }
      ],
      "stateMutability": "view",
      "type": "function",
      "constant": true
    },
    {
      "inputs": [],
      "name": "giver",
      "outputs": [
        {
          "internalType": "address",
          "name": "donator",
          "type": "address"
        },
        {
          "internalType": "uint256",
          "name": "amountDonated",
          "type": "uint256"
        }
      ],
      "stateMutability": "view",
      "type": "function",
      "constant": true
    },
    {
      "inputs": [
        {
          "internalType": "address",
          "name": "",
          "type": "address"
        },
        {
          "internalType": "address",
          "name": "",
          "type": "address"
        }
      ],
      "name": "giverDetails",
      "outputs": [
        {
          "internalType": "address",
          "name": "donator",
          "type": "address"
        },
        {
          "internalType": "uint256",
          "name": "amountDonated",
          "type": "uint256"
        }
      ],
      "stateMutability": "view",
      "type": "function",
      "constant": true
    },
    {
      "inputs": [
        {
          "internalType": "uint256",
          "name": "",
          "type": "uint256"
        }
      ],
      "name": "givers",
      "outputs": [
        {
          "internalType": "address",
          "name": "donator",
          "type": "address"
        },
        {
          "internalType": "uint256",
          "name": "amountDonated",
          "type": "uint256"
        }
      ],
      "stateMutability": "view",
      "type": "function",
      "constant": true
    },
    {
      "inputs": [],
      "name": "receiver",
      "outputs": [
        {
          "internalType": "string",
          "name": "name",
          "type": "string"
        },
        {
          "internalType": "address",
          "name": "user",
          "type": "address"
        },
        {
          "internalType": "uint256",
          "name": "target",
          "type": "uint256"
        },
        {
          "internalType": "bool",
          "name": "isAdded",
          "type": "bool"
        }
      ],
      "stateMutability": "view",
      "type": "function",
      "constant": true
    },
    {
      "inputs": [
        {
          "internalType": "address",
          "name": "",
          "type": "address"
        }
      ],
      "name": "receiverDetails",
      "outputs": [
        {
          "internalType": "string",
          "name": "name",
          "type": "string"
        },
        {
          "internalType": "address",
          "name": "user",
          "type": "address"
        },
        {
          "internalType": "uint256",
          "name": "target",
          "type": "uint256"
        },
        {
          "internalType": "bool",
          "name": "isAdded",
          "type": "bool"
        }
      ],
      "stateMutability": "view",
      "type": "function",
      "constant": true
    },
    {
      "inputs": [
        {
          "internalType": "uint256",
          "name": "",
          "type": "uint256"
        }
      ],
      "name": "receivers",
      "outputs": [
        {
          "internalType": "string",
          "name": "name",
          "type": "string"
        },
        {
          "internalType": "address",
          "name": "user",
          "type": "address"
        },
        {
          "internalType": "uint256",
          "name": "target",
          "type": "uint256"
        },
        {
          "internalType": "bool",
          "name": "isAdded",
          "type": "bool"
        }
      ],
      "stateMutability": "view",
      "type": "function",
      "constant": true
    },
    {
      "inputs": [
        {
          "internalType": "string",
          "name": "_name",
          "type": "string"
        },
        {
          "internalType": "uint256",
          "name": "_target",
          "type": "uint256"
        }
      ],
      "name": "addUser",
      "outputs": [],
      "stateMutability": "nonpayable",
      "type": "function"
    },
    {
      "inputs": [],
      "name": "deleteUser",
      "outputs": [],
      "stateMutability": "nonpayable",
      "type": "function"
    },
    {
      "inputs": [
        {
          "internalType": "uint256",
          "name": "_amount",
          "type": "uint256"
        },
        {
          "internalType": "address",
          "name": "_receiver",
          "type": "address"
        }
      ],
      "name": "incrementAmount",
      "outputs": [
        {
          "internalType": "uint256",
          "name": "",
          "type": "uint256"
        }
      ],
      "stateMutability": "nonpayable",
      "type": "function"
    },
    {
      "inputs": [
        {
          "internalType": "address",
          "name": "_receiver",
          "type": "address"
        },
        {
          "internalType": "uint256",
          "name": "_amount",
          "type": "uint256"
        }
      ],
      "name": "sendEther",
      "outputs": [],
      "stateMutability": "payable",
      "type": "function",
      "payable": true
    },
    {
      "inputs": [
        {
          "internalType": "address",
          "name": "_receiver",
          "type": "address"
        },
        {
          "internalType": "uint256",
          "name": "_amount",
          "type": "uint256"
        }
      ],
      "name": "Donates",
      "outputs": [],
      "stateMutability": "payable",
      "type": "function",
      "payable": true
    }
  ],
  "bytecode": "0x608060405234801561001057600080fd5b50611602806100206000396000f3fe6080604052600436106100a75760003560e01c8063bd371c9511610064578063bd371c95146101c3578063bfd772fc14610201578063c1756a2c14610241578063cc6cb19a1461025d578063f7260d3e1461029a578063fb775b46146102c8576100a7565b8063026ff05e146100ac5780631c5220c2146100c3578063304a5723146100ec5780638fbe4b4e146101295780639a3452e514610167578063b37c5eb2146101a7575b600080fd5b3480156100b857600080fd5b506100c16102f4565b005b3480156100cf57600080fd5b506100ea60048036038101906100e59190610f5a565b6103cf565b005b3480156100f857600080fd5b50610113600480360381019061010e9190611014565b6105da565b6040516101209190611063565b60405180910390f35b34801561013557600080fd5b50610150600480360381019061014b919061107e565b610679565b60405161015e9291906110ba565b60405180910390f35b34801561017357600080fd5b5061018e600480360381019061018991906110e3565b6106cd565b60405161019e94939291906111b3565b60405180910390f35b6101c160048036038101906101bc91906111ff565b6107b2565b005b3480156101cf57600080fd5b506101ea60048036038101906101e5919061123f565b610934565b6040516101f89291906110ba565b60405180910390f35b34801561020d57600080fd5b506102286004803603810190610223919061107e565b610985565b60405161023894939291906111b3565b60405180910390f35b61025b600480360381019061025691906111ff565b610a7a565b005b34801561026957600080fd5b50610284600480360381019061027f91906110e3565b610bca565b6040516102919190611063565b60405180910390f35b3480156102a657600080fd5b506102af610be2565b6040516102bf94939291906111b3565b60405180910390f35b3480156102d457600080fd5b506102dd610cb5565b6040516102eb9291906110ba565b60405180910390f35b600660003373ffffffffffffffffffffffffffffffffffffffff1673ffffffffffffffffffffffffffffffffffffffff168152602001908152602001600020600080820160006103449190610ce7565b6001820160006101000a81549073ffffffffffffffffffffffffffffffffffffffff021916905560028201600090556003820160006101000a81549060ff0219169055505060008060003373ffffffffffffffffffffffffffffffffffffffff1673ffffffffffffffffffffffffffffffffffffffff16815260200190815260200160002081905550565b6000600660003373ffffffffffffffffffffffffffffffffffffffff1673ffffffffffffffffffffffffffffffffffffffff16815260200190815260200160002060030160009054906101000a900460ff16905060008203610466576040517f08c379a000000000000000000000000000000000000000000000000000000000815260040161045d906112cb565b60405180910390fd5b60011515811515036104ad576040517f08c379a00000000000000000000000000000000000000000000000000000000081526004016104a4906113a9565b60405180910390fd5b60405180608001604052808481526020013373ffffffffffffffffffffffffffffffffffffffff16815260200183815260200160011515815250600660003373ffffffffffffffffffffffffffffffffffffffff1673ffffffffffffffffffffffffffffffffffffffff1681526020019081526020016000206000820151816000019080519060200190610542929190610d27565b5060208201518160010160006101000a81548173ffffffffffffffffffffffffffffffffffffffff021916908373ffffffffffffffffffffffffffffffffffffffff1602179055506040820151816002015560608201518160030160006101000a81548160ff021916908315150217905550905050600560018160018154018082558091505003906000526020600020905050505050565b6000806000808473ffffffffffffffffffffffffffffffffffffffff1673ffffffffffffffffffffffffffffffffffffffff168152602001908152602001600020549050838161062a91906113f8565b9050806000808573ffffffffffffffffffffffffffffffffffffffff1673ffffffffffffffffffffffffffffffffffffffff168152602001908152602001600020819055508091505092915050565b6009818154811061068957600080fd5b90600052602060002090600202016000915090508060000160009054906101000a900473ffffffffffffffffffffffffffffffffffffffff16908060010154905082565b60066020528060005260406000206000915090508060000180546106f09061147d565b80601f016020809104026020016040519081016040528092919081815260200182805461071c9061147d565b80156107695780601f1061073e57610100808354040283529160200191610769565b820191906000526020600020905b81548152906001019060200180831161074c57829003601f168201915b5050505050908060010160009054906101000a900473ffffffffffffffffffffffffffffffffffffffff16908060020154908060030160009054906101000a900460ff16905084565b3373ffffffffffffffffffffffffffffffffffffffff168273ffffffffffffffffffffffffffffffffffffffff1603610820576040517f08c379a0000000000000000000000000000000000000000000000000000000008152600401610817906114fa565b60405180910390fd5b61082a81836105da565b506108358282610a7a565b60405180604001604052803373ffffffffffffffffffffffffffffffffffffffff16815260200182815250600a60008473ffffffffffffffffffffffffffffffffffffffff1673ffffffffffffffffffffffffffffffffffffffff16815260200190815260200160002060003373ffffffffffffffffffffffffffffffffffffffff1673ffffffffffffffffffffffffffffffffffffffff16815260200190815260200160002060008201518160000160006101000a81548173ffffffffffffffffffffffffffffffffffffffff021916908373ffffffffffffffffffffffffffffffffffffffff160217905550602082015181600101559050505050565b600a602052816000526040600020602052806000526040600020600091509150508060000160009054906101000a900473ffffffffffffffffffffffffffffffffffffffff16908060010154905082565b6005818154811061099557600080fd5b90600052602060002090600402016000915090508060000180546109b89061147d565b80601f01602080910402602001604051908101604052809291908181526020018280546109e49061147d565b8015610a315780601f10610a0657610100808354040283529160200191610a31565b820191906000526020600020905b815481529060010190602001808311610a1457829003601f168201915b5050505050908060010160009054906101000a900473ffffffffffffffffffffffffffffffffffffffff16908060020154908060030160009054906101000a900460ff16905084565b3490506000600660008473ffffffffffffffffffffffffffffffffffffffff1673ffffffffffffffffffffffffffffffffffffffff16815260200190815260200160002060020154905060008060008573ffffffffffffffffffffffffffffffffffffffff1673ffffffffffffffffffffffffffffffffffffffff16815260200190815260200160002054905060008473ffffffffffffffffffffffffffffffffffffffff1684604051610b2d9061154b565b60006040518083038185875af1925050503d8060008114610b6a576040519150601f19603f3d011682016040523d82523d6000602084013e610b6f565b606091505b5050905080610bb3576040517f08c379a0000000000000000000000000000000000000000000000000000000008152600401610baa906115ac565b60405180910390fd5b818311610bc357610bc26102f4565b5b5050505050565b60006020528060005260406000206000915090505481565b6001806000018054610bf39061147d565b80601f0160208091040260200160405190810160405280929190818152602001828054610c1f9061147d565b8015610c6c5780601f10610c4157610100808354040283529160200191610c6c565b820191906000526020600020905b815481529060010190602001808311610c4f57829003601f168201915b5050505050908060010160009054906101000a900473ffffffffffffffffffffffffffffffffffffffff16908060020154908060030160009054906101000a900460ff16905084565b60078060000160009054906101000a900473ffffffffffffffffffffffffffffffffffffffff16908060010154905082565b508054610cf39061147d565b6000825580601f10610d055750610d24565b601f016020900490600052602060002090810190610d239190610dad565b5b50565b828054610d339061147d565b90600052602060002090601f016020900481019282610d555760008555610d9c565b82601f10610d6e57805160ff1916838001178555610d9c565b82800160010185558215610d9c579182015b82811115610d9b578251825591602001919060010190610d80565b5b509050610da99190610dad565b5090565b5b80821115610dc6576000816000905550600101610dae565b5090565b6000604051905090565b600080fd5b600080fd5b600080fd5b600080fd5b6000601f19601f8301169050919050565b7f4e487b7100000000000000000000000000000000000000000000000000000000600052604160045260246000fd5b610e3182610de8565b810181811067ffffffffffffffff82111715610e5057610e4f610df9565b5b80604052505050565b6000610e63610dca565b9050610e6f8282610e28565b919050565b600067ffffffffffffffff821115610e8f57610e8e610df9565b5b610e9882610de8565b9050602081019050919050565b82818337600083830152505050565b6000610ec7610ec284610e74565b610e59565b905082815260208101848484011115610ee357610ee2610de3565b5b610eee848285610ea5565b509392505050565b600082601f830112610f0b57610f0a610dde565b5b8135610f1b848260208601610eb4565b91505092915050565b6000819050919050565b610f3781610f24565b8114610f4257600080fd5b50565b600081359050610f5481610f2e565b92915050565b60008060408385031215610f7157610f70610dd4565b5b600083013567ffffffffffffffff811115610f8f57610f8e610dd9565b5b610f9b85828601610ef6565b9250506020610fac85828601610f45565b9150509250929050565b600073ffffffffffffffffffffffffffffffffffffffff82169050919050565b6000610fe182610fb6565b9050919050565b610ff181610fd6565b8114610ffc57600080fd5b50565b60008135905061100e81610fe8565b92915050565b6000806040838503121561102b5761102a610dd4565b5b600061103985828601610f45565b925050602061104a85828601610fff565b9150509250929050565b61105d81610f24565b82525050565b60006020820190506110786000830184611054565b92915050565b60006020828403121561109457611093610dd4565b5b60006110a284828501610f45565b91505092915050565b6110b481610fd6565b82525050565b60006040820190506110cf60008301856110ab565b6110dc6020830184611054565b9392505050565b6000602082840312156110f9576110f8610dd4565b5b600061110784828501610fff565b91505092915050565b600081519050919050565b600082825260208201905092915050565b60005b8381101561114a57808201518184015260208101905061112f565b83811115611159576000848401525b50505050565b600061116a82611110565b611174818561111b565b935061118481856020860161112c565b61118d81610de8565b840191505092915050565b60008115159050919050565b6111ad81611198565b82525050565b600060808201905081810360008301526111cd818761115f565b90506111dc60208301866110ab565b6111e96040830185611054565b6111f660608301846111a4565b95945050505050565b6000806040838503121561121657611215610dd4565b5b600061122485828601610fff565b925050602061123585828601610f45565b9150509250929050565b6000806040838503121561125657611255610dd4565b5b600061126485828601610fff565b925050602061127585828601610fff565b9150509250929050565b7f66756e64696e672074617267657420697320696e76616c696420000000000000600082015250565b60006112b5601a8361111b565b91506112c08261127f565b602082019050919050565b600060208201905081810360008301526112e4816112a8565b9050919050565b7f796f7520616c72656164792068617665206120646f6e6174696f6e20696e207060008201527f6c6163652c20616e206163636f756e742063616e27742068617665206d6f726560208201527f207468616e206f6e6520646f6e6174696f6e2072756e6e696e672073696d756c60408201527f74616e656f75736c790000000000000000000000000000000000000000000000606082015250565b600061139360698361111b565b915061139e826112eb565b608082019050919050565b600060208201905081810360008301526113c281611386565b9050919050565b7f4e487b7100000000000000000000000000000000000000000000000000000000600052601160045260246000fd5b600061140382610f24565b915061140e83610f24565b9250827fffffffffffffffffffffffffffffffffffffffffffffffffffffffffffffffff03821115611443576114426113c9565b5b828201905092915050565b7f4e487b7100000000000000000000000000000000000000000000000000000000600052602260045260246000fd5b6000600282049050600182168061149557607f821691505b6020821081036114a8576114a761144e565b5b50919050565b7f796f752063616e27742073656e6420746f2073656c6600000000000000000000600082015250565b60006114e460168361111b565b91506114ef826114ae565b602082019050919050565b60006020820190508181036000830152611513816114d7565b9050919050565b600081905092915050565b50565b600061153560008361151a565b915061154082611525565b600082019050919050565b600061155682611528565b9150819050919050565b7f4661696c656420746f2073656e64206d6f6e6579000000000000000000000000600082015250565b600061159660148361111b565b91506115a182611560565b602082019050919050565b600060208201905081810360008301526115c581611589565b905091905056fea2646970667358221220adfae8bb77d3179f821397fc086c1e0ee7d913b1f1ec571b254b133b583a55f364736f6c634300080d0033",
  "immutableReferences": {},
  "source": "pragma solidity >=0.4.22 <0.9.0; \n\ncontract Donate{\n    struct Giver{\n      address donator;\n      uint256 amountDonated;\n    }\n    struct Receiver{\n      string name;\n      address user;\n      uint256 target;\n      bool isAdded;\n    }\n    \n    mapping(address => uint256) public donations;\n\n    Receiver public receiver;\n    Receiver[] public receivers;\n    mapping(address =>Receiver) public receiverDetails;\n    \n\n    Giver public giver;\n    Giver[] public givers;\n    mapping(address => mapping(address => Giver)) public giverDetails;  \n  \n    function addUser(string memory _name, uint256 _target) public  {\n      bool toCheck =  receiverDetails[msg.sender].isAdded;\n      require(_target != 0, \"funding target is invalid \");\n      require(toCheck != true, \"you already have a donation in place, an account can't have more than one donation running simultaneously\");\n      receiverDetails[msg.sender] = Receiver(_name, msg.sender, _target, true);\n      receivers.push();\n    }\n\n    //delete user\n    function deleteUser() public {\n      delete receiverDetails[msg.sender];\n      donations[msg.sender] = 0;\n    }\n\n    //increment amount\n    function incrementAmount(uint256 _amount, address _receiver) public returns(uint256){\n      uint256 balance = donations[_receiver];\n      balance = balance + _amount;\n      donations[_receiver] = balance;\n      return balance;\n    }\n\n    function sendEther(address _receiver, uint256 _amount) public payable{\n      //donate ether\n       _amount = msg.value;\n       uint256 _target = receiverDetails[_receiver].target;\n       uint256 balance = donations[_receiver];\n       (bool success,) = payable(_receiver).call{value: _amount}(\"\");\n       require(success, \"Failed to send money\");\n\n       if(_target <= balance){\n         deleteUser();\n       }\n    }\n\n    //donate ether\n    function Donates(address _receiver, uint256 _amount) public payable{\n      \n       require(_receiver != msg.sender, \"you can't send to self\");\n       incrementAmount(_amount, _receiver);\n       sendEther(_receiver, _amount); \n       giverDetails[_receiver][msg.sender] = Giver(msg.sender, _amount);\n    }\n\n}",
  "sourcePath": "/home/malik/Desktop/global/contracts/Donate.sol",
  "compiler": {
    "name": "solc",
    "version": "0.8.13+commit.abaa5c0e.Emscripten.clang"
  },
  "schemaVersion": "3.4.7",
  "updatedAt": "2022-04-13T23:45:12.913Z",
  "networkType": "ethereum",
  "devdoc": {
    "kind": "dev",
    "methods": {},
    "version": 1
  },
  "userdoc": {
    "kind": "user",
    "methods": {},
    "version": 1
  }
}